{
  "_format": "hh3-artifact-1",
  "contractName": "Match",
  "sourceName": "contracts/Match.sol",
  "abi": [
    {
      "inputs": [],
      "stateMutability": "nonpayable",
      "type": "constructor"
    },
    {
      "anonymous": false,
      "inputs": [],
      "name": "result_updated",
      "type": "event"
    },
    {
      "inputs": [
        {
          "internalType": "string",
          "name": "player1",
          "type": "string"
        },
        {
          "internalType": "uint8",
          "name": "score1",
          "type": "uint8"
        },
        {
          "internalType": "string",
          "name": "player2",
          "type": "string"
        },
        {
          "internalType": "uint8",
          "name": "score2",
          "type": "uint8"
        }
      ],
      "name": "set_last_result",
      "outputs": [],
      "stateMutability": "nonpayable",
      "type": "function"
    }
  ],
  "bytecode": "0x6080604052348015600e575f5ffd5b505f80546001600160a01b031916331790556103898061002d5f395ff3fe608060405234801561000f575f5ffd5b5060043610610029575f3560e01c8063a0913b641461002d575b5f5ffd5b61004061003b366004610171565b610042565b005b5f546001600160a01b031633146100ad5760405162461bcd60e51b815260206004820152602560248201527f596f7520617265206e6f7420746865206f776e6572206f662074686520636f6e6044820152641d1c9858dd60da1b606482015260840160405180910390fd5b60016100ba868883610299565b506002805460ff191660ff861617905560036100d7838583610299565b506004805460ff191660ff83161790556040517f1b87c99f8b4412d61c181622d314affe13aa13e666ab6834ab899bffb25c5516905f90a1505050505050565b5f5f83601f840112610127575f5ffd5b50813567ffffffffffffffff81111561013e575f5ffd5b602083019150836020828501011115610155575f5ffd5b9250929050565b803560ff8116811461016c575f5ffd5b919050565b5f5f5f5f5f5f60808789031215610186575f5ffd5b863567ffffffffffffffff81111561019c575f5ffd5b6101a889828a01610117565b90975095506101bb90506020880161015c565b9350604087013567ffffffffffffffff8111156101d6575f5ffd5b6101e289828a01610117565b90945092506101f590506060880161015c565b90509295509295509295565b634e487b7160e01b5f52604160045260245ffd5b600181811c9082168061022957607f821691505b60208210810361024757634e487b7160e01b5f52602260045260245ffd5b50919050565b601f82111561029457805f5260205f20601f840160051c810160208510156102725750805b601f840160051c820191505b81811015610291575f815560010161027e565b50505b505050565b67ffffffffffffffff8311156102b1576102b1610201565b6102c5836102bf8354610215565b8361024d565b5f601f8411600181146102f6575f85156102df5750838201355b5f19600387901b1c1916600186901b178355610291565b5f83815260208120601f198716915b828110156103255786850135825560209485019460019092019101610305565b5086821015610341575f1960f88860031b161c19848701351681555b505060018560011b018355505050505056fea26469706673582212202d8efd4b48dee8fff66100b7c2477c4da384b5ec9d6944813cc3123e0b8f8e6c64736f6c634300081c0033",
  "linkReferences": {},
  "deployedLinkReferences": {},
  "immutableReferences": {},
  "inputSourceName": "project/contracts/Match.sol",
  "buildInfoId": "solc-0_8_28-29da1eeaf5d39d705726ca4416869f8e1c1b8db5"
}